:100000000C9446000C9465000C9465000C946500FB
:100010000C9465000C9465000C9465000C946500CC
:100020000C9465000C9465000C9465000C946500BC
:100030000C9465000C9465000C9465000C946500AC
:100040000C94CE160C9465000C9465000C9465001D
:100050000C9465000C94F4090C9465000C946500F4
:100060000C9465000C9465000C9465000C9465007C
:100070000C9465000C9465000C9465000C9465006C
:100080000C9465000C9465000C94650011241FBE4F
:10009000CFEFD0E1DEBFCDBF12E0A0E0B1E0E4E9F8
:1000A000F0E400E00BBF02C007900D92AE37B1073D
:1000B000D9F71CE0AEE7B2E001C01D92AC35B10744
:1000C000E1F70E940D050C9449200C940000CF9399
:1000D000DF93CDB7DEB7C255D0400FB6F894DEBF80
:1000E0000FBECDBFFE01EB5BFF4F60837183828348
:1000F00093831E821D82CE0109962B969FAF8EAFF1
:100100002B97E4E1F1E02D96FFAFEEAF2D97F8E2EB
:100110002E96FFAF2E972D96EEADFFAD2D9700805A
:100120002D968EAD9FAD2D9701962D969FAF8EAFDC
:100130002D972B96EEADFFAD2B9700822B968EADB3
:100140009FAD2B9701962B969FAF8EAF2B972E9638
:100150009FAD2E9791502E969FAF2E972E96EFAD76
:100160002E97EE23C1F6CE01C19660969FAF8EAF5B
:100170006097E0E0F1E06296FFAFEEAF6297F4E1E6
:100180006396FFAF63976296EEADFFAD6297008016
:1001900062968EAD9FAD6297019662969FAF8EAFCD
:1001A00062976096EEADFFAD6097008260968EAD6F
:1001B0009FAD6097019660969FAF8EAF60976396F4
:1001C0009FAD6397915063969FAF63976396EFAD32
:1001D0006397EE23C1F6EAE9F0E088E18083EDE978
:1001E000F0E086E0808318861F8231C08F81988579
:1001F0009C01220F331F220F331FCE010196820F65
:10020000931FFC0138962081318142815381FE0188
:10021000EB5BFF4F80819181A281B3812817390761
:100220004A075B0779F48F8198859C01220F331F61
:10023000CE010196820F931FFC01F096808191817F
:100240009E838D838F819885019698878F838F8178
:1002500098858A30910554F28D819E81892F992746
:100260009A8389838D819E8190709C838B83E9E939
:10027000F0E08B818083E8E9F0E0898180838B81E5
:100280009C81CE5ADF4F0FB6F894DEBF0FBECDBFB4
:10029000DF91CF910895CF93DF93CDB7DEB721974C
:1002A0000FB6F894DEBF0FBECDBF8983ECE9F0E056
:1002B00089818083EBE9F0E08081992780769070D6
:1002C00080369105B9F721960FB6F894DEBF0FBEC0
:1002D000CDBFDF91CF910895CF93DF93CDB7DEB738
:1002E00022970FB6F894DEBF0FBECDBF9A838983E5
:1002F0000BC0E981FA81208189819A8101969A83D4
:100300008983822F0E944B01E981FA8180818823B1
:1003100081F722960FB6F894DEBF0FBECDBFDF91F6
:10032000CF910895CF93DF93CDB7DEB723970FB664
:10033000F894DEBF0FBECDBF8B838B819AE0692F0F
:100340000E94BD1F892F8A838B819AE0692F0E94AA
:10035000BD1F8B838B819AE0692F0E94BD1F892F5F
:1003600089838B819AE0692F0E94BD1F8B838B81CB
:10037000882321F08B81805D0E944B018B81882333
:1003800019F48981882321F08981805D0E944B01C5
:100390008A81805D0E944B01EBE9F0E08081992722
:1003A0008076907080369105B9F723960FB6F89451
:1003B000DEBF0FBECDBFDF91CF910895CF93DF9306
:1003C000CDB7DEB7EBE9F0E080818823DCF7ECE91C
:1003D000F0E080819927DF91CF910895CF93DF934B
:1003E000CDB7DEB722970FB6F894DEBF0FBECDBFF4
:1003F00089836A838BE10E944B018BE50E944B014C
:100400008981825E0E9492018BE30E944B018A8166
:10041000885D0E9492018DE60E944B0122960FB6E4
:10042000F894DEBF0FBECDBFDF91CF9108950F933B
:10043000CF93DF93CDB7DEB727970FB6F894DEBF23
:100440000FBECDBF8A836B835D834C832E830F8366
:100450002091880230918902CE010196AC0160E0C2
:1004600070E0C9010E9498136F818E810E94EE0195
:100470008BE10E944B018BE50E944B018B810E9416
:1004800092018BE30E944B018A810E94920188E4D1
:100490000E944B018C819D810E946C018091880299
:1004A000909189020E94091427960FB6F894DEBF36
:1004B0000FBECDBFDF91CF910F910895CF93DF9302
:1004C000CDB7DEB721970FB6F894DEBF0FBECDBF14
:1004D0002091880230918902CE010196AC0160E042
:1004E00070E0C9010E94981364E081E00E94EE016F
:1004F0008CE391E00E946C018091880290918902C6
:100500000E94091421960FB6F894DEBF0FBECDBF2E
:10051000DF91CF9108950F93CF93DF93CDB7DEB7DF
:1005200026970FB6F894DEBF0FBECDBF8A836B83CC
:100530004C832D830E8380918802909189029E01C5
:100540002F5F3F4FA90160E070E00E9498136E8119
:100550008D810E94EE018BE10E944B018BE50E9490
:100560004B018B810E9492018BE30E944B018A8197
:100570000E94920188E40E944B018C810E944B01F1
:1005800080918802909189020E94091426960FB6E4
:10059000F894DEBF0FBECDBFDF91CF910F910895CC
:1005A000CF93DF93CDB7DEB7EBE3F0E080818093AC
:1005B0008002EAE3F0E08FEF80838FE090E00E941A
:1005C000DD04ABE3B0E0EBE3F0E0808184708C937A
:1005D000EBE3F0E080E2808381E00E9440038FE063
:1005E0000E94400382E00E94400380E80E94400392
:1005F000DF91CF910895CF93DF93CDB7DEB7ABE313
:10060000B0E0EBE3F0E0808184608C938AEF0E949D
:100610001303ABE3B0E0EBE3F0E080818B7F8C93DE
:10062000DF91CF910895CF93DF93CDB7DEB72197B8
:100630000FB6F894DEBF0FBECDBF898310927F0244
:1006400011C010927E0205C080917E028F5F809360
:100650007E0280917E028A30B8F380917F028F5FA4
:1006600080937F0290917F028981981750F32196A1
:100670000FB6F894DEBF0FBECDBFDF91CF910895C6
:10068000CF93DF93CDB7DEB721970FB6F894DEBFD7
:100690000FBECDBF8983ABE3B0E0EBE3F0E0808138
:1006A00084708C93EBE3F0E090EF89818923808361
:1006B0000E94FB02EBE3F0E0898199278F70907034
:1006C00082959295907F9827807F982780830E94BB
:1006D000FB0221960FB6F894DEBF0FBECDBFDF91AF
:1006E000CF910895CF93DF93CDB7DEB721970FB6A3
:1006F000F894DEBF0FBECDBF8983EBE3F0E081E06D
:100700008083ABE3B0E0EBE3F0E0808182708C9318
:10071000EBE3F0E0998180EF8923816080830E9480
:10072000FB02EBE3F0E0898199278F70907082954E
:100730009295907F9827807F9827816080830E9480
:10074000FB0221960FB6F894DEBF0FBECDBFDF913E
:10075000CF910895CF93DF93CDB7DEB723970FB630
:10076000F894DEBF0FBECDBF8B838B81893089F4B7
:100770001A82198208C08B810E94720389819A8132
:1007800001969A83898389819A81823091059CF3AD
:100790000AC08B818A3021F480E00E94B90403C032
:1007A0008B810E94720323960FB6F894DEBF0FBEB2
:1007B000CDBFDF91CF910895CF93DF93CDB7DEB753
:1007C00023970FB6F894DEBF0FBECDBF9B838A83FD
:1007D0001982EBE3F0E081E08083ABE3B0E0EBE390
:1007E000F0E0808182708C9333C08981803119F46C
:1007F00080EC0E944003ABE3B0E0898199279C0123
:100800008A819B81F901E80FF91F8081982F80EF81
:10081000892381608C930E94FB02ABE3B0E0898165
:1008200099279C018A819B81F901E80FF91F80813A
:1008300099278F70907082959295907F9827807FEE
:10084000982781608C930E94FB0289818F5F898346
:10085000898199279C018A819B81F901E80FF91F01
:100860008081882311F623960FB6F894DEBF0FBE61
:10087000CDBFDF91CF910895CF93DF93CDB7DEB792
:1008800024970FB6F894DEBF0FBECDBF8C831B82BA
:100890001A8219828C8194E6692F0E94BD1F8B8376
:1008A0008C81482F55278B81282F332784E690E0B1
:1008B000BC01269FC001279F900D369F900D1124EB
:1008C0009A01281B390BC9012AE030E0B9010E94C6
:1008D000C91FCB018A838B81282F332784E690E0C0
:1008E000AC01249FC001259F900D349F900D1124D1
:1008F000982F8C81482F491B8A8199279C01220FB0
:10090000331FC901880F991F880F991F820F931FEA
:10091000542F581B852F89838B81805D0E94AA03E9
:100920008A81805D0E94AA038981805D0E94AA035A
:1009300024960FB6F894DEBF0FBECDBFDF91CF91E6
:100940000895CF93DF93CDB7DEB721970FB6F89414
:10095000DEBF0FBECDBF8983898180580E944003CE
:1009600021960FB6F894DEBF0FBECDBFDF91CF91B9
:100970000895CF93DF93CDB7DEB721970FB6F894E4
:10098000DEBF0FBECDBF8983898180540E944003A2
:1009900021960FB6F894DEBF0FBECDBFDF91CF9189
:1009A0000895CF93DF93CDB7DEB7EBE3F0E080910E
:1009B00080028083DF91CF910895CF93DF93CDB7ED
:1009C000DEB724970FB6F894DEBF0FBECDBF9C8371
:1009D0008B830FC01A82198206C0000089819A8118
:1009E00001969A83898389819A812CE08C3C9207B5
:1009F000A4F38B819C8101979C838B838B819C8149
:100A00002FEF8F3F920731F724960FB6F894DEBF91
:100A10000FBECDBFDF91CF910895CFEFD0E1DEBF04
:100A2000CDBF60E072EC81E090E00E9467000E9420
:100A3000D002E4E3F0E08FEF8083AAE3B0E0EAE3E2
:100A4000F0E0808188608C9380E00E94A10481E4C2
:100A500091E00E94DC0387E00E94B90482E591E006
:100A60000E94DC0380E00E943C04E2E2F0E010829D
:100A7000E3E2F0E08FEF80830E94760C81E090E06B
:100A80000E94481390938D0480938C0481E090E041
:100A90000E94481390938B0280938A0281E090E039
:100AA0000E944813909389028093880281E090E02D
:100AB0000E944813909391068093900680E090E006
:100AC0000E942A1290938F0480938E0480E090E01D
:100AD0000E942A12909387028093860281E99AE00D
:100AE000E0EAF5E020E0AC0160E070E0CF010E94B8
:100AF0004D148BE894E0EAE3F6E021E0AC0160E01D
:100B000070E0CF010E944D1481E998E0ECE9F6E035
:100B100022E0AC0160E070E0CF010E944D148FE84C
:100B200096E0E7ECF6E023E0AC0160E070E0CF0196
:100B30000E944D140E94410D80E090E00C944920E9
:100B40000F93CF93DF93CDB7DEB729970FB6F89405
:100B5000DEBF0FBECDBF998788871B82F894E3E57F
:100B6000F0E087E08083E7E5F0E081E08083E2E584
:100B7000F0E010827894E7E2F0E082EE8083E6E233
:100B8000F0E08EEE8083AFE5B0E0EFE5F0E080814D
:100B900080688C930E945E0289E591E006E021E086
:100BA000AC0162E082E00E9417028B8199279E01CE
:100BB0002B5F3F4F9F938F9380E691E09F938F939E
:100BC0003F932F930E94951C8DB79EB706960FB644
:100BD000F8949EBF0FBE8DBFCE01059606E021E0C2
:100BE000AC0162E088E00E94170283E691E004E035
:100BF00027E0AC0162E083E20E94170281E491E009
:100C000007E021E0AC0162E080E40E94170220913D
:100C10008E0430918F04CE010496AC0160E070E048
:100C2000C9010E947A129A838983E981FA818081BD
:100C30008B838B8199279E012B5F3F4F9F938F93CF
:100C400080E691E09F938F933F932F930E94951C92
:100C50008DB79EB706960FB6F8949EBF0FBE8DBF98
:100C6000CE01059606E021E0AC0162E088E00E943A
:100C70001702CDCF0F93CF93DF93CDB7DEB7239776
:100C80000FB6F894DEBF0FBECDBF9B838A838091E1
:100C90008202982F9B5F809181028B5F04E024E0A9
:100CA00040E2692F0E948B0220918A0230918B02D0
:100CB000CE010196AC0160E070E0C9010E9498137A
:100CC0008FE00E946F0A8093820280918A02909145
:100CD0008B020E94091420918C0430918D04CE0166
:100CE0000196AC0160E070E0C9010E94981387E4AE
:100CF0000E946F0A8093810280918C0490918D04F0
:100D00000E94091480918202982F9B5F809181023A
:100D10008B5F07E020E040E4692F0E948B02209166
:100D2000900630919106CE010196AC0160E070E032
:100D3000C9010E949813ABCFCF93DF93CDB7DEB735
:100D400022970FB6F894DEBF0FBECDBF9A8389837A
:100D500080918302882339F4E5E3F0E0108281E09A
:100D60008093830206C0E5E3F0E08FEF808310926A
:100D7000830220E030E044E060E080E00E942D1536
:100D800080919006909191060E940914E1CF0F93F3
:100D9000CF93DF93CDB7DEB7AC970FB6F894DEBF35
:100DA0000FBECDBF9CA78BA71D8E8AE08C8F8AE0DB
:100DB0008B8F8AE08A8F8AE0898F8BE0888F8CE026
:100DC0008F8B8DE08E8B8EE08D8B8AE08E8F8AE00C
:100DD0008F8F8AE088A38EE089A38AE08AA38DE0C2
:100DE0008BA38AE08CA38CE08DA38AE08EA38BE09A
:100DF0008FA38AE088A78AE089A71A8A198A8F8D2B
:100E00009E8D01E020E04AE2682F892F0E948B022C
:100E100001E020E04DE2688D8C8D0E948B0201E0A4
:100E200020E04DE26F898B8D0E948B0201E020E073
:100E30004DE26E898A8D0E948B0201E020E04DE236
:100E40006D89898D0E948B0288A1898F89A18D8BE4
:100E50008AA18A8F8BA18E8B8CA18B8F8DA18F8B7A
:100E60008EA18C8F8FA1888F88A58E8F89A58F8F5B
:100E70002091860230918702CE018A96AC0160E013
:100E800070E0C9010E947A12988B8F87EF85F889EC
:100E900080818B8B8B89863A08F46DC08AA188A3E8
:100EA0008CA18AA38EA18CA388A58EA38BA189A3D4
:100EB0008DA18BA38FA18DA389A58FA389A5815017
:100EC00089A789A5843018F484E189A701C089A580
:100ED00004E024E040E26D89898D0E948B0204E0E9
:100EE00024E040E26E898A8D0E948B0204E024E0B7
:100EF00040E26F898B8D0E948B0204E024E040E287
:100F0000688D8C8D0E948B028F8D9E8D04E024E075
:100F100040E2682F892F0E948B0289A598A501E0E5
:100F200020E04AE2682F892F0E948B028FA19EA1A8
:100F300001E020E04DE2682F892F0E948B028DA1F5
:100F40009CA101E020E04DE2682F892F0E948B02D6
:100F50008BA19AA101E020E04DE2682F892F0E9429
:100F60008B0289A198A101E020E04DE2682F892F32
:100F70000E948B0270C08B898A3508F06CC08AA1F0
:100F800088A38CA18AA38EA18CA388A58EA38BA1F4
:100F900089A38DA18BA38FA18DA389A58FA389A5DB
:100FA0008F5F89A789A5853118F084E089A701C0E2
:100FB00089A504E024E040E26D89898D0E948B02BE
:100FC00004E024E040E26E898A8D0E948B0204E0F6
:100FD00024E040E26F898B8D0E948B0204E024E0C4
:100FE00040E2688D8C8D0E948B028F8D9E8D04E077
:100FF00024E040E2682F892F0E948B0289A598A5E2
:1010000001E020E04AE2682F892F0E948B028FA125
:101010009EA101E020E04DE2682F892F0E948B0203
:101020008DA19CA101E020E04DE2682F892F0E9454
:101030008B028BA19AA101E020E04DE2682F892F5D
:101040000E948B0289A198A101E020E04DE2682F67
:10105000892F0E948B022091860230918702CE0157
:101060008A96AC0160E070E0C9010E947A12988B08
:101070008F87EF85F88980818C8B8C89863A08F47C
:101080006DC08AA188A38CA18AA38EA18CA388A5F8
:101090008EA38BA189A38DA18BA38FA18DA389A5DD
:1010A0008FA388A5815088A788A5843018F48CE484
:1010B00088A701C088A504E024E040E26D89898DFD
:1010C0000E948B0204E024E040E26E898A8D0E9437
:1010D0008B0204E024E040E26F898B8D0E948B023A
:1010E00004E024E040E2688D8C8D0E948B028F8D9D
:1010F0009E8D04E024E040E2682F892F0E948B023D
:1011000089A598A501E020E04AE2682F892F0E9476
:101110008B028FA19EA101E020E04DE2682F892F74
:101120000E948B028DA19CA101E020E04DE2682F7E
:10113000892F0E948B028BA19AA101E020E04DE251
:10114000682F892F0E948B0289A198A101E020E0DD
:101150004DE2682F892F0E948B0270C08C898A35DE
:1011600008F06CC08AA188A38CA18AA38EA18CA34D
:1011700088A58EA38BA189A38DA18BA38FA18DA3FD
:1011800089A58FA388A58F5F88A788A58D3418F0BF
:1011900084E088A701C088A504E024E040E26D89CE
:1011A000898D0E948B0204E024E040E26E898A8DE2
:1011B0000E948B0204E024E040E26F898B8D0E9444
:1011C0008B0204E024E040E2688D8C8D0E948B024B
:1011D0008F8D9E8D04E024E040E2682F892F0E94CD
:1011E0008B0289A598A501E020E04AE2682F892FAB
:1011F0000E948B028FA19EA101E020E04DE2682FAA
:10120000892F0E948B028DA19CA101E020E04DE27C
:10121000682F892F0E948B028BA19AA101E020E008
:101220004DE2682F892F0E948B0289A198A101E0CD
:1012300020E04DE2682F892F0E948B0220918A02C4
:1012400030918B02CE018A96AC0160E070E0C9015A
:101250000E949813809182028B5F898B80918A0211
:1012600090918B020E94091420918C0430918D047E
:10127000CE018A96AC0160E070E0C9010E9498132B
:10128000809181028B5F8A8B80918C0490918D0478
:101290000E9409149E8D8A89981709F0D5CD9F8DDB
:1012A0008989981709F0D0CDABE3B0E0EBE3F0E02B
:1012B000808188608C938D8D8F5F8D8FCE014D9650
:1012C000988B8F8720918E0430918F048F85988919
:1012D000BC01C9010E94051380E090E0AAE7B4E4D4
:1012E0008B879C87AD87BE8720E030E04AE753E4D8
:1012F0006B857C858D859E850E94FB18DC01CB016A
:101300008F839887A987BA8720E030E040E85FE3C1
:101310006F81788589859A850E94661A88230CF0EA
:1013200005C081E090E09E838D8340C020E03FEFC8
:101330004FE757E46F81788589859A850E94FA196D
:1013400018160CF029C020E030E040E251E46B8533
:101350007C858D859E850E94FB18DC01CB01BC013C
:10136000CD010E943117DC01CB019E838D830FC01C
:1013700089E190E09C838B838B819C810197F1F7BD
:101380009C838B838D819E8101979E838D838D812C
:101390009E81009769F714C06F81788589859A8549
:1013A0000E943117DC01CB019E838D838D819E814C
:1013B0009A83898389819A810197F1F79A83898336
:1013C0008DE00E94B9048D8D0E943C04ABE3B0E037
:1013D000EBE3F0E0808188708C938091900690918F
:1013E00091060E94091430CD1F920F920FB60F92F2
:1013F00011242F933F934F935F936F937F938F931A
:101400009F93AF93BF93EF93FF93CF93DF93CDB7AA
:10141000DEB72397DEBFCDBF1B82809184029091FF
:1014200085020196909385028093840280918402C4
:101430009091850223E0883E9207B1F510928502D3
:1014400010928402E5E2F0E080818B8380916D014F
:101450008130A9F410926D01E7E2F0E081EE808323
:10146000CE0103969A838983209186023091870268
:1014700089819A81BC01C9010E94051315C081E0D0
:1014800080936D01E7E2F0E082EE8083CE01039667
:101490009A838983209186023091870289819A817B
:1014A000BC01C9010E940513E6E2F0E08EEE8083E4
:1014B0002396F894DEBFCDBFDF91CF91FF91EF91DE
:1014C000BF91AF919F918F917F916F915F914F915C
:1014D0003F912F910F900FBE0F901F901895CF93B3
:1014E000DF93CDB7DEB721970FB6F894DEBF0FBEFE
:1014F000CDBF89838091920A9091930AA091940A1A
:10150000B091950A2DE63EE446EC51E4BC01CD01D4
:101510000E949E1FDC01CB01875C9F4CAF4FBF4FE9
:101520008093920A9093930AA093940AB093950A99
:101530008091920A9091930AA091940AB091950A91
:10154000892F9A2FAB2FBB27482F552789819927A1
:101550009C012F5F3F4FCA01B9010E94C91F992703
:1015600021960FB6F894DEBF0FBECDBFDF91CF91AD
:101570000895CF93DF93CDB7DEB72C970FB6F894CD
:10158000DEBF0FBECDBF9E838D8378876F835A8762
:1015900049873C872B8789859A859C838B838D819E
:1015A0009E819A8389838981EB81FC8180838B81F1
:1015B0009C8101979C838B8389819A81892F9927AC
:1015C000EB81FC8180838B819C8101979C838B8341
:1015D000EB81FC8110828B819C8101979C838B83A2
:1015E000EB81FC8110828B819C8101979C838B8392
:1015F000EB81FC8110828B819C8101979C838B8382
:10160000EB81FC8110828B819C8101979C838B8371
:10161000EB81FC8110828B819C8101979C838B8361
:10162000EB81FC8110828B819C8101979C838B8351
:10163000EB81FC8110828B819C8101979C838B8341
:10164000EB81FC8110828B819C8101979C838B8331
:10165000EB81FC8110828B819C8101979C838B8321
:10166000EB81FC8110828B819C8101979C838B8311
:10167000EB81FC8110828B819C8101979C838B8301
:10168000EB81FC8110828B819C8101979C838B83F1
:10169000EB81FC8110828B819C8101979C838B83E1
:1016A000EB81FC8110828B819C8101979C838B83D1
:1016B000EB81FC8110828B819C8101979C838B83C1
:1016C000EB81FC8110828B819C8101979C838B83B1
:1016D000EB81FC8110828B819C8101979C838B83A1
:1016E000EB81FC8110828B819C8101979C838B8391
:1016F000EB81FC8110828B819C8101979C838B8381
:10170000EB81FC8110828B819C8101979C838B8370
:10171000EB81FC8110828B819C8101979C838B8360
:10172000EB81FC8110828B819C8101979C838B8350
:10173000EB81FC8110828B819C8101979C838B8340
:10174000EB81FC8110828B819C8101979C838B8330
:101750008F8198859A8389838981EB81FC8180833D
:101760008B819C8101979C838B8389819A81892FAE
:101770009927EB81FC8180838B819C8101979C83DD
:101780008B83EB81FC8110828B819C8101979C83F0
:101790008B83EB81FC8110828B819C8101979C83E0
:1017A0008B83EB81FC8110828B819C8101979C83D0
:1017B0008B83EB81FC8110828B819C8101979C83C0
:1017C0008B83EB81FC8110828B819C8101979C83B0
:1017D0008B83EB81FC8110828B819C8101979C83A0
:1017E0008B83EB81FC8110828B819C8101979C8390
:1017F0008B83EB81FC8180E880838B819C810197C6
:101800009C838B838B819C812C960FB6F894DEBFD2
:101810000FBECDBFDF91CF910895CF93DF93CDB7AA
:10182000DEB722970FB6F894DEBF0FBECDBF9A8306
:10183000898322960FB6F894DEBF0FBECDBFDF912D
:10184000CF910895CF93DF93CDB7DEB722970FB630
:10185000F894DEBF0FBECDBF9A83898322960FB660
:10186000F894DEBF0FBECDBFDF91CF910895CF9327
:10187000DF93CDB7DEB7DF91CF910895CF93DF939C
:10188000CDB7DEB7DF91CF910895CF93DF93CDB77A
:10189000DEB7DF91CF910895CF93DF93CDB7DEB759
:1018A000DF91CF910895CF93DF93CDB7DEB7DF916E
:1018B000CF910895CF93DF93CDB7DEB7DF91CF916E
:1018C0000895CF93DF93CDB7DEB722970FB6F89484
:1018D000DEBF0FBECDBF9A83898322960FB6F894E0
:1018E000DEBF0FBECDBFDF91CF910895CF93DF93C1
:1018F000CDB7DEB70E944C0C0E9408100E94271042
:101900000E9473100E94C00F0E9461100E94530C2D
:10191000DF91CF910895CF93DF93CDB7DEB780915C
:10192000970A813049F48091AF0A8F3F29F0809166
:10193000AF0A8F5F8093AF0ADF91CF910895CF9365
:10194000DF93CDB7DEB78091970A813009F05CC094
:10195000F8948091AF0A882329F08091AF0A8150D2
:101960008093AF0A8091AF0A882309F04CC0809120
:10197000960A882309F047C08091A90A9927FC019B
:10198000EA58FE4F80818093AE0A8091AE0A282FDC
:10199000220F220F220F8091AE0A9927FC01E655F3
:1019A000F54F80819927FC01EA58FE4F8081820F14
:1019B00080939C0A90919C0A80919D0A981719F136
:1019C00080919C0A9927880F991FFC01EE5BF34FC9
:1019D000808191819093A80A8093A70A8091A00AA0
:1019E0009091A10AA091A20AB091A30A0196A11D0B
:1019F000B11D8093A00A9093A10AA093A20AB0936C
:101A0000A30A0E9497167894DF91CF910895CF93FF
:101A1000DF93CDB7DEB78091970A813059F4F894FF
:101A20008091960A8F3F29F08091960A8F5F80936C
:101A3000960A7894DF91CF910895CF93DF93CDB735
:101A4000DEB78091970A8130C9F4F8948091960AA4
:101A5000882399F08091960A81508093960A80910C
:101A6000960A882341F48091AF0A882321F4789460
:101A70000E94C51003C0789401C07894DF91CF9183
:101A80000895CF93DF93CDB7DEB722970FB6F894C2
:101A9000DEBF0FBECDBF8091970A8823C9F5809124
:101AA000A90A9927FC01EA58FE4F80818A838A811E
:101AB0009927FC01E655F54F80819927FC01EA58EA
:101AC000FE4F808189838A81982F990F990F990FF2
:101AD0008981890F80939C0A80919C0A80939D0A3A
:101AE00080919C0A9927880F991FFC01EE5BF34FA8
:101AF000808191819093A80A8093A70A8091A70A78
:101B00009091A80A9093B10A8093B00A0E9400169F
:101B100022960FB6F894DEBF0FBECDBFDF91CF91F6
:101B20000895CF93DF93CDB7DEB722970FB6F89421
:101B3000DEBF0FBECDBF0E94450C8091970A813059
:101B400009F056C080919E0A90919F0A9A838983DA
:101B500049C0F894E981FA81828593850097D9F18B
:101B6000E981FA81828593850197E981FA819387DA
:101B70008287E981FA8182859385009761F5E98101
:101B8000FA8184859927887090700097F1F4E98133
:101B9000FA8191898091A90A892B8093A90AE98108
:101BA000FA818785282F3327E981FA81878599274C
:101BB000FC01E655F54F9081E981FA818089892BF6
:101BC000F901E655F54F808306C0E981FA8181E08D
:101BD00090E093878287E981FA81828193819A8359
:101BE00089837894E981FA8185858C3009F0B1CFB9
:101BF00022960FB6F894DEBF0FBECDBFDF91CF9116
:101C00000895CF93DF93CDB7DEB78CEF90E0DF91EF
:101C1000CF910895CF93DF93CDB7DEB72C970FB652
:101C2000F894DEBF0FBECDBF998788877B876A8710
:101C30004C87E885F98581819927FC01EA58FE4F98
:101C400080818C838C819927FC01E259FE4F808131
:101C50008A838C81282F332788859985820F931F4B
:101C6000FC01369680819927FC01EA58FE4F80815D
:101C70008D838D819927FC01E259FE4F80818B83F2
:101C80008C81982F990F990F990F8D81890F8983D6
:101C90008C81482F55278C81282F3327888599855B
:101CA000820F931FFC0136968081982F8B8180953F
:101CB0008923282F88859985840F951FFC013696E6
:101CC000208388859985840F951FFC013696808135
:101CD000882351F4E885F9858181982F8A81809540
:101CE0008923E885F985818389819927880F991F40
:101CF000FC01EE5BF34F808191819F838E83EE81A7
:101D0000FF8113861286EE81FF8117821682EE8193
:101D1000FF818A859B8591878087EE81FF818485FD
:101D2000982F8C8580958923EE81FF818487EE81B1
:101D3000FF8184858823A9F49091A90A8A81892B3F
:101D40008093A90A8C81282F33278C819927FC0145
:101D5000E655F54F90818B81892BF901E655F54FBA
:101D60008083898199272C960FB6F894DEBF0FBE29
:101D7000CDBFDF91CF910895CF93DF93CDB7DEB77D
:101D800022970FB6F894DEBF0FBECDBF9A8389832A
:101D9000E091B00AF091B10A89819A819783868394
:101DA000E091B00AF091B10A8785282F3327E0919E
:101DB000B00AF091B10A87859927FC01E655F54FE5
:101DC0008081982FE091B00AF091B10A80898095C6
:101DD0008923F901E655F54F8083F901E655F54F62
:101DE0008081882361F4E091B00AF091B10A818981
:101DF000982F90958091A90A89238093A90AE09150
:101E0000B00AF091B10A8785482F5527E091B00AB2
:101E1000F091B10A8785282F332789819A81820F13
:101E2000931FFC0136969081E091B00AF091B10ABF
:101E30008089292F282B89819A81840F951FFC0185
:101E400036962083E981FA819181E091B00AF09180
:101E5000B10A8189892BE981FA81818322960FB6A3
:101E6000F894DEBF0FBECDBFDF91CF910895CF9321
:101E7000DF93CDB7DEB722970FB6F894DEBF0FBE63
:101E8000CDBF9A838983E091B00AF091B10A87852A
:101E9000482F5527E091B00AF091B10A8785282F85
:101EA000332789819A81820F931FFC0136968081A6
:101EB000982FE091B00AF091B10A8089809589232A
:101EC000282F89819A81840F951FFC0136962083E3
:101ED00089819A81840F951FFC0136968081882321
:101EE00071F4E981FA818181982FE091B00AF09133
:101EF000B10A818980958923E981FA818183E09102
:101F0000B00AF091B10A1486E091B00AF091B10ADA
:101F10001782168222960FB6F894DEBF0FBECDBF91
:101F2000DF91CF910895CF93DF93CDB7DEB724979C
:101F30000FB6F894DEBF0FBECDBF9C838B83EB81C1
:101F4000FC8111828B819C8106969A838983E98129
:101F5000FA81108289819A8101969A838983E98125
:101F6000FA81108289819A8101969A8389832496C5
:101F70000FB6F894DEBF0FBECDBFDF91CF910895AD
:101F8000CF93DF93CDB7DEB726970FB6F894DEBFB9
:101F90000FBECDBF82E39BE09C838B838AE39BE0F3
:101FA0009A8389831E821D8218C0EB81FC81108276
:101FB000EB81FC8189819A81958384838B819C81CB
:101FC00008969C838B8389819A8108969A8389835A
:101FD0008D819E8101969E838D838D819E81863029
:101FE000910518F3EB81FC811082EB81FC81158255
:101FF000148282E39BE09093AD0A8093AC0A26960C
:102000000FB6F894DEBF0FBECDBFDF91CF9108951C
:10201000CF93DF93CDB7DEB71092AF0A1092960A36
:102020001092A60A1092970A1092A00A1092A10A82
:102030001092A20A1092A30A1092980A1092990A7A
:1020400010929A0A10929B0ADF91CF910895CF9334
:10205000DF93CDB7DEB724970FB6F894DEBF0FBE7F
:10206000CDBF1092A90A8AEA9AE09A8389831C82DA
:102070001B820DC0E981FA81108289819A810196C3
:102080009A8389838B819C8101969C838B838B812E
:102090009C818230910570F310929D0A10929C0AE7
:1020A0001092A80A1092A70A1092B10A1092B00AD0
:1020B00024960FB6F894DEBF0FBECDBFDF91CF914F
:1020C0000895CF93DF93CDB7DEB781E39BE0E8E2DD
:1020D000F1E12CE0AC0160E070E0CF010E944D1412
:1020E000DF91CF910895CF93DF93CDB7DEB72597DA
:1020F0000FB6F894DEBF0FBECDBF10929F0A1092AC
:102100009E0A1D820CC08D819927880F991FFC01A2
:10211000EE5BF34F118210828D818F5F8D838D81F5
:102120008D3088F38AE69BE09C838B838CE79BE071
:102130009A8389831D8213C0EB81FC8189819A81F6
:10214000938382838B819C8142969C838B8389813C
:102150009A8142969A8389838D818F5F8D838D8149
:102160008B3050F3EB81FC81138212828AE69BE074
:102170009093A50A8093A40A25960FB6F894DEBF23
:102180000FBECDBFDF91CF910895CF93DF93CDB731
:10219000DEB721970FB6F894DEBF0FBECDBFF8941F
:1021A0008091AF0A882309F049C08091960A88235C
:1021B00009F044C08091A90A9927FC01EA58FE4F12
:1021C000808189838981282F220F220F220F898104
:1021D0009927FC01E655F54F80819927FC01EA58C3
:1021E000FE4F8081820F80939C0A90919C0A80917F
:1021F0009D0A981719F180919C0A9927880F991FB9
:10220000FC01EE5BF34F808191819093A80A80934B
:10221000A70A8091A00A9091A10AA091A20AB09168
:10222000A30A0196A11DB11D8093A00A9093A10A53
:10223000A093A20AB093A30A0E9434167894219620
:102240000FB6F894DEBF0FBECDBFDF91CF910895DA
:10225000CF93DF93CDB7DEB722970FB6F894DEBFEA
:102260000FBECDBF9A838983F8948091980A90918C
:10227000990AA0919A0AB0919B0A0196A11DB11DDD
:102280008093980A9093990AA0939A0AB0939B0A14
:1022900078940E945A0CE8CFAF92BF92CF92DF920F
:1022A000EF92FF920F931F93CF93DF93CDB7DEB7DB
:1022B00063970FB6F894DEBF0FBECDBF8B837D83CF
:1022C0006C835F834E8339872887EA86FB860C8779
:1022D0001D87DF86CE86B98AA88AF8948091A40AE1
:1022E0009091A50A9A83898389819A81009709F43C
:1022F00099C0E981FA81828193819093A50A8093A4
:10230000A40A7894E981FA818C819D8191838083EC
:10231000E981FA818B818587E981FA811486E981D7
:10232000FA81138612868B81869586958695E9813A
:10233000FA818787E981FA8187859927FC01E2592B
:10234000FE4F8081E981FA81818B8B818770E981E1
:10235000FA818687E981FA8186859927FC01E2590D
:10236000FE4F8081E981FA81808BE981FA811782B1
:102370001682E981FA811186108689819A810E94EC
:10238000610C89819A810E940D0CF8948B819927A8
:10239000880F991FFC01EE5BF34F89819A8191832D
:1023A000808380919E0A90919F0AE981FA819383AC
:1023B0008283E981FA811582148280919E0A90912C
:1023C0009F0A009741F0E0919E0AF0919F0A89814F
:1023D0009A819583848389819A8190939F0A8093BF
:1023E0009E0AE981FA8191898091A90A892B8093BB
:1023F000A90AE981FA818785282F3327E981FA81A3
:1024000087859927FC01E655F54F9081E981FA818E
:102410008089892BF901E655F54F808378941B8AD2
:102420001A8A05C0789486E490E09B8B8A8B8A890F
:102430009B8963960FB6F894DEBF0FBECDBFDF91C8
:10244000CF911F910F91FF90EF90DF90CF90BF90B1
:10245000AF900895CF93DF93CDB7DEB726970FB631
:10246000F894DEBF0FBECDBF9C838B838091AF0AF3
:10247000882319F01E821D8232C0F8948091AC0A24
:102480009091AD0A9A8389838091AC0A9091AD0AAC
:10249000009751F0E091AC0AF091AD0A84819581EA
:1024A0009093AD0A8093AC0A789489819A810097C1
:1024B00091F0E981FA8181E08083E981FA811382D8
:1024C0001282E981FA818B819C8195838483898141
:1024D0009A810E94930F89819A819E838D838D8139
:1024E0009E8126960FB6F894DEBF0FBECDBFDF915A
:1024F000CF910895CF93DF93CDB7DEB72A970FB66C
:10250000F894DEBF0FBECDBF9C838B837E836D832B
:1025100058874F838091AF0A882339F0EF81F8857F
:1025200082E080831A86198665C0F894EB81FC816D
:10253000848195819A83898389819A81009769F042
:10254000EB81FC81158214827894EF81F8851082EA
:1025500089819A819A8789874DC0A091B00AB091EC
:10256000B10AE091B00AF091B10A84858260FD0160
:102570008487E091B00AF091B10A8D819E819387A2
:1025800082878B819C810E94BC0E78940E94C5102A
:10259000F894E091B00AF091B10A808591859A8310
:1025A000898389819A810097D1F0E091B00AF091F6
:1025B000B10A11861086E091B00AF091B10A148632
:1025C000E091B00AF091B10A178216827894EF81F7
:1025D000F885108289819A819A8789870BC08B81BF
:1025E0009C810E94370F7894EF81F8858AE0808380
:1025F0001A86198689859A852A960FB6F894DEBFC1
:102600000FBECDBFDF91CF910895CF93DF93CDB7AC
:10261000DEB726970FB6F894DEBF0FBECDBF9A8304
:1026200089837C836B83F894E981FA818181882393
:1026300079F08B819C8129813A8142E0BC01C901FA
:102640000E940A0E78940E94C5101E821D8215C039
:10265000E981FA8184819581009731F0789484E151
:1026600090E09E838D8309C0E981FA818B819C81F2
:102670009583848378941E821D828D819E81269607
:102680000FB6F894DEBF0FBECDBFDF91CF91089596
:10269000CF93DF93CDB7DEB726970FB6F894DEBFA2
:1026A0000FBECDBF9C838B838091AF0A882319F026
:1026B0001E821D8232C0F8948091AC0A9091AD0ABE
:1026C0009A8389838091AC0A9091AD0A009751F06A
:1026D000E091AC0AF091AD0A848195819093AD0AA6
:1026E0008093AC0A789489819A81009791F0E9816E
:1026F000FA8183E08083E981FA818B819C819383D5
:102700008283E981FA811582148289819A810E94EB
:10271000930F89819A819E838D838D819E812696D8
:102720000FB6F894DEBF0FBECDBFDF91CF910895F5
:10273000CF93DF93CDB7DEB726970FB6F894DEBF01
:102740000FBECDBF9A8389837C836B835E834D8369
:102750008091AF0A882329F0ED81FE8182E0808399
:102760004FC0F894E981FA8182819381009771F0DA
:10277000E981FA81828193810197E981FA819383CA
:1027800082837894ED81FE8110823AC0A091B00AD4
:10279000B091B10AE091B00AF091B10A84858160EC
:1027A000FD018487E091B00AF091B10A8B819C8190
:1027B0009387828789819A810E94BC0E78940E94B7
:1027C000C510F894E091B00AF091B10A8485992778
:1027D00081709070882351F089819A810E94370F0F
:1027E0007894ED81FE818AE080830AC0E091B00A8E
:1027F000F091B10A178216827894ED81FE811082E1
:1028000026960FB6F894DEBF0FBECDBFDF91CF91F5
:102810000895CF93DF93CDB7DEB724970FB6F89422
:10282000DEBF0FBECDBF9A838983F894E981FA8118
:102830008181882369F089819A8141E060E070E0BC
:102840000E940A0E78940E94C5101C821B821AC036
:10285000E981FA81828193812FEF8F3F920769F09E
:10286000E981FA81828193810196E981FA819383DA
:10287000828378941C821B8205C0789482E390E066
:102880009C838B838B819C8124960FB6F894DEBF4A
:102890000FBECDBFDF91CF910895AF92BF92CF927F
:1028A000DF92EF92FF920F931F93CF93DF93CDB7F9
:1028B000DEB72C970FB6F894DEBF0FBECDBF9D8359
:1028C0008C837F836E83598748872A87F8948A850B
:1028D0009927880F991FFC01EE5BF34F808191814E
:1028E000009709F04EC08A859927880F991FFC012F
:1028F000EE5BF34F81E090E091838083789488854C
:1029000099856E817F81EC81FD8120E030E0AC0112
:10291000CF010E94B90A9B838A838A819B81AA2462
:10292000BB24CC24DD24EE24FF24870120E030E00A
:1029300040E050E0BC018A850E944C118983898166
:10294000882371F4F8948091A60A8F5F8093A60A79
:1029500078948091970A813071F40E94C5100BC061
:10296000F8948A859927880F991FFC01EE5BF34F35
:102970001182108278948981282F33273C872B87F6
:1029800005C0789488E290E09C878B878B859C8536
:102990002C960FB6F894DEBF0FBECDBFDF91CF915E
:1029A0001F910F91FF90EF90DF90CF90BF90AF906D
:1029B0000895CF93DF93CDB7DEB722970FB6F89483
:1029C000DEBF0FBECDBF9A83898389819A8100972C
:1029D000D9F1F894E091B00AF091B10A8785282FD7
:1029E0003327E091B00AF091B10A87859927FC015D
:1029F000E655F54F8081982FE091B00AF091B10A29
:102A0000808980958923F901E655F54F8083F90186
:102A1000E655F54F8081882361F4E091B00AF0918A
:102A2000B10A8189982F90958091A90A8923809372
:102A3000A90AE091B00AF091B10A89819A8193873D
:102A4000828778940E94C51022960FB6F894DEBF54
:102A50000FBECDBFDF91CF910895EF92FF920F93FC
:102A60001F93CF93DF93CDB7DEB72D970FB6F894B2
:102A7000DEBF0FBECDBF8F83688749873B872A871C
:102A80008F81882359F48885882341F48985882398
:102A900029F48A859B85009709F49FC088858C332B
:102AA00028F081E590E09D878C879BC089858C33D9
:102AB00028F082E590E09D878C8793C08A859B856E
:102AC00023E0883E920728F083E590E09D878C877D
:102AD00088C08F819927AA27BB2720E13EE040E0EC
:102AE00050E0BC01CD010E949E1F7B018C018885B6
:102AF0009927AA27BB272CE330E040E050E0BC0137
:102B0000CD010E949E1FDC01CB01A8019701280F77
:102B1000391F4A1F5B1F89859927AA27BB27820F68
:102B2000931FA41FB51F2DE330E040E050E0BC012F
:102B3000CD010E949E1F7B018C018A859B85AA275F
:102B4000BB272DE330E040E050E0BC01CD010E9406
:102B50009E1FDC01CB0188519E4FAF4FBF4F28EE27
:102B600033E040E050E0BC01CD010E94DC1FDA01FF
:102B7000C9018E0D9F1DA01FB11F8B839C83AD8348
:102B8000BE838B819C81AD81BE81CD01AA27BB27ED
:102B90009A8389838B819C81AD81BE81A070B07046
:102BA0008B839C83AD83BE838B819C810E94D914CF
:102BB0000DC080E090E80E94D91480E090E80E9467
:102BC000D91489819A8101979A83898389819A810D
:102BD000009779F71D861C8604C084E590E09D87E8
:102BE0008C878C859D852D960FB6F894DEBF0FBE21
:102BF000CDBFDF91CF911F910F91FF90EF9008957E
:102C00000E94370C0091970A03950093970AE09170
:102C1000A70AF091A80AC191CDBFD191DEBF0F9153
:102C20000FBF0F910BBFFF91EF91DF91CF91BF913C
:102C3000AF919F918F917F916F915F914F913F9154
:102C40002F911F910F91FF90EF90DF90CF90BF9049
:102C5000AF909F908F907F906F905F904F903F903C
:102C60002F901F900F9008950F921F922F923F92D6
:102C70004F925F926F927F928F929F92AF92BF928C
:102C8000CF92DF92EF92FF920F931F932F933F9378
:102C90004F935F936F937F938F939F93AF93BF9364
:102CA000CF93DF93EF93FF930BB70F930FB70F9370
:102CB000E091B00AF091B10ACDB7C193DEB7D193DC
:102CC0000E94370C00919C0A00939D0AE091A70A8C
:102CD000F091A80AE093B00AF093B10AC191CDBF78
:102CE000D191DEBF0F910FBF0F910BBFFF91EF91FD
:102CF000DF91CF91BF91AF919F918F917F916F9114
:102D00005F914F913F912F911F910F91FF90EF9005
:102D1000DF90CF90BF90AF909F908F907F906F90FB
:102D20005F904F903F902F901F900F9008950E94BA
:102D3000370C00919C0A00939D0AE091A70AF0913C
:102D4000A80AE093B00AF093B10AC191CDBFD19126
:102D5000DEBF0F910FBF0F910BBFFF91EF91DF917E
:102D6000CF91BF91AF919F918F917F916F915F9123
:102D70004F913F912F911F910F91FF90EF90DF9016
:102D8000CF90BF90AF909F908F907F906F905F900B
:102D90004F903F902F901F900F9008950F921F9289
:102DA0002F923F924F925F926F927F928F929F925B
:102DB000AF92BF92CF92DF92EF92FF920F931F9349
:102DC0002F933F934F935F936F937F938F939F9333
:102DD000AF93BF93CF93DF93EF93FF930BB70F9313
:102DE0000FB700680F930091AF0A03950093AF0AE5
:102DF000013041F4CDB7DEB7E091B00AF091B10AED
:102E0000C193D19300E002BFF0E01F2E78940E949E
:102E1000910D00000E949F0C0F910FBF0F910BBFEF
:102E2000FF91EF91DF91CF91BF91AF919F918F91E2
:102E30007F916F915F914F913F912F911F910F91D2
:102E4000FF90EF90DF90CF90BF90AF909F908F90CA
:102E50007F906F905F904F903F902F901F900F90BA
:102E60000895EF92FF920F931F937B018C0120E056
:102E700030E040E05FE40E94301A88237CF020E0DC
:102E800030E040E05FE4C801B7010E949D180E9455
:102E90009C1A605070408040904804C0C801B7013F
:102EA0000E949C1A1F910F91FF90EF900895A0E04F
:102EB000B0E0EDE5F7E10C9414202C015B01FA0180
:102EC000DC019C91923008F432C1EB0188818230A0
:102ED00008F42CC1943071F4843009F028C1F20157
:102EE00091818981981709F422C116E7412E12E0D9
:102EF000512E1DC1843009F419C18230A9F49230D9
:102F000009F015C1CA01A20128E0DA010D90AD0156
:102F1000EC010992CE012150C1F7E5018981E2015E
:102F200099818923818300C1923009F4FFC0E201B5
:102F3000CA80DB80EB018A819B81E201EC80FD800D
:102F40000E811F81EB012C813D814E815F81B60195
:102F5000681B790BDB0177FF03C0709561957F4F8C
:102F6000603271050CF05DC01A161B065CF5662414
:102F70007724430181E090E0A0E0B0E0062E04C099
:102F8000880F991FAA1FBB1F0A94D2F70197A109A6
:102F9000B10982239323A423B5230097A105B1058A
:102FA00029F0B1E06B2E712C812C912C04C0569528
:102FB0004795379527956A95D2F7262937294829C5
:102FC00059293BC0AB2BC9F1C60ED71E6624772406
:102FD000430181E090E0A0E0B0E0062E04C0880F3D
:102FE000991FAA1FBB1F0A94D2F70197A109B10923
:102FF0008E219F21A023B1230097A105B10529F0BF
:10300000A1E06A2E712C812C912C04C01695079595
:10301000F794E7946A95D2F7E628F7280829192942
:103020000CC08C159D052CF06C01EE24FF2487014B
:1030300004C020E030E040E050E0E2019981E50189
:103040008981981709F443C0992329F02E193F0963
:10305000400B510B06C0E21AF30A040B150BA80132
:10306000970157FD08C01182D382C2822483358321
:10307000468357831DC081E08183D382C282882723
:103080009927DC01821B930BA40BB50B84839583DA
:10309000A683B7830DC0220F331F441F551F2483FF
:1030A00035834683578382819381019793838283FB
:1030B0002481358146815781DA01C9010197A1092F
:1030C000B1098F5F9F4FAF4FBF4328F30BC0918370
:1030D000D382C2822E0D3F1D401F511F2483358392
:1030E0004683578383E080832481358146815781DD
:1030F0005523D4F4C901AA2797FDA095BA2F817052
:103100009070A070B0705695479537952795822B93
:10311000932BA42BB52B84839583A683B7838281BD
:1031200093810196938382832F0101C02501C201FF
:10313000E0E1CDB7DEB70C943020A0E2B0E0E3EAE6
:10314000F8E10C941E2069837A838B839C832D8302
:103150003E834F83588709E0E02EF12CEC0EFD1ED4
:10316000B701CE0101960E94CF1B8E010F5E1F4F4B
:10317000B801CE0105960E94CF1B8A8991E089276C
:103180008A8BAE01475E5F4FB801C7010E94571797
:103190000E94EF1AE6E0A0960C943A20A0E2B0E07C
:1031A000E4EDF8E10C941E2069837A838B839C8381
:1031B0002D833E834F83588789E0E82EF12CEC0E57
:1031C000FD1EB701CE0101960E94CF1B8E010F5E3E
:1031D0001F4FB801CE0105960E94CF1BAE01475E7E
:1031E0005F4FB801C7010E9457170E94EF1AE6E02F
:1031F000A0960C943A20A0E2B0E0E1E0F9E10C9452
:10320000142069837A838B839C832D833E834F8331
:10321000588799E0E92EF12CEC0EFD1EB701CE0186
:1032200001960E94CF1B8E010F5E1F4FB801CE0189
:1032300005960E94CF1B9985923088F0898982304B
:10324000C0F0943019F4823029F009C0843029F498
:10325000923079F466E772E0C6C0923041F420E023
:103260009A858A89981321E02A87B701BCC08230E9
:1032700041F420E09A858A89981321E02A8BB801CD
:10328000B2C0CD84DE84EF84F8880D891E892F8931
:10329000388D40E050E060E070E0E0E0F0E088244D
:1032A00099245401442455243201C6018170907040
:1032B000892BD9F0800E911EA21EB31EDB01CA011C
:1032C000840D951DA61DB71D40E050E060E070E044
:1032D00080169106A206B30620F441E050E060E0BB
:1032E00070E0480F591F6A1F7B1F440C551C661C59
:1032F000771C37FF08C081E090E0A0E0B0E0482AEA
:10330000592A6A2A7B2A3196E032F10549F0000FEA
:10331000111F221F331FF694E794D794C794C5CF8B
:103320008B899C892B853C85820F931F02969C8FED
:103330008B8F1A8E9A858A89981711F081E08A8F6F
:103340002B8D3C8D17C0CA0181709070892B61F064
:10335000B694A7949794879480E090E0A0E0B0E8BA
:10336000882A992AAA2ABB2A769567955795479560
:103370002F5F3F4F77FDE7CFC9010BC0440F551FAB
:10338000661F771FB7FC4160880C991CAA1CBB1CE8
:1033900001974030A0E05A07A0E06A07A0E47A074E
:1033A00068F39C8F8B8FDB01CA018F779070A070C0
:1033B000B07080349105A105B10561F447FD0AC0E4
:1033C00081149104A104B10429F0405C5F4F6F4F58
:1033D0007F4F40784D8F5E8F6F8F78A383E0898F0A
:1033E000BE01675E7F4FCB010E94EF1AE0E1A0961D
:1033F0000C943020A8E1B0E0E0E0FAE10C941E204B
:1034000069837A838B839C832D833E834F83588784
:1034100089E0E82EF12CEC0EFD1EB701CE010196DD
:103420000E94CF1B8E010F5E1F4FB801CE01059683
:103430000E94CF1B8985823060F08989823048F0F4
:10344000B801C7010E943F1C282F332727FD309564
:1034500002C02FEF3FEFC901E6E068960C943A20D6
:10346000A8E1B0E0E6E3FAE10C941E2069837A83D8
:103470008B839C832D833E834F83588789E0E82E7E
:10348000F12CEC0EFD1EB701CE0101960E94CF1B60
:103490008E010F5E1F4FB801CE0105960E94CF1B13
:1034A0008985823060F08989823048F0B801C7018F
:1034B0000E943F1C282F332727FD309502C02FEF95
:1034C0003FEFC901E6E068960C943A20A8E1B0E02D
:1034D000ECE6FAE10C941E2069837A838B839C834B
:1034E0002D833E834F83588789E0E82EF12CEC0E24
:1034F000FD1EB701CE0101960E94CF1B8E010F5E0B
:103500001F4FB801CE0105960E94CF1B89858230DE
:1035100060F08989823048F0B801C7010E943F1CE1
:10352000282F332727FD309502C021E030E0C90164
:10353000E6E068960C943A20ACE0B0E0E2EAFAE10A
:103540000C94222069837A838B839C83BE016B5FFA
:103550007F4FCE0101960E94CF1B8D818230A9F151
:10356000823098F1843021F48E81882359F40FC081
:103570002F81388537FD29C06E812F31310564F0E8
:10358000662329F020E030E040E050E822C02FEF31
:103590003FEF4FEF5FE71DC08EE190E0821B930B82
:1035A00029853A854B855C8504C0569547953795A6
:1035B00027958A95D2F7662361F05095409530950E
:1035C00021953F4F4F4F5F4F04C020E030E040E077
:1035D00050E0CA01B901E2E02C960C943E209F9283
:1035E000AF92BF92CF92DF92EF92FF920F931F9311
:1035F000EE24FF248701FC01248135814681578117
:1036000091808081823010F44061A2C0843009F43E
:103610009BC0823029F420E030E040E050E005C05B
:10362000211531054105510519F4E0E0F0E092C0A3
:10363000828193816FEF823896070CF05AC062E85E
:103640007FEF681B790B6A3171052CF020E030E0C8
:1036500040E050E02AC0AA24BB24650181E090E04C
:10366000A0E0B0E0062E04C0880F991FAA1FBB1F60
:103670000A94D2F70197A109B10982239323A423C5
:10368000B5230097A105B10529F071E0A72EB12C53
:10369000C12CD12C04C056954795379527956A952E
:1036A000D2F72A293B294C295D29DA01C9018F77F4
:1036B0009070A070B07080349105A105B10539F407
:1036C00027FF09C0205C3F4F4F4F5F4F04C0215C74
:1036D0003F4F4F4F5F4F80E090E0203060E0360773
:1036E00060E0460760E4560710F081E090E0FC01DE
:1036F00023C08038910544F5FC01E158FF4FDA0101
:10370000C9018F779070A070B07080349105A105C9
:10371000B10539F427FF09C0205C3F4F4F4F5F4F81
:1037200004C0215C3F4F4F4F5F4F57FF05C0569578
:10373000479537952795319687E056954795379564
:1037400027958A95D1F706C020E030E040E050E0B0
:10375000EFEFF0E0E22EF32E942F9F77802F80780A
:10376000892B9E2F9795992797958F77082F092B4F
:103770009E2F9695812F8078892B979499249794E2
:103780008F77182F1929C801B7011F910F91FF904A
:10379000EF90DF90CF90BF90AF909F900895CF9320
:1037A000DF93FC01DB01208131819281492F4F772A
:1037B00050E0991F9927991F8381E82FEE0FE92B7D
:1037C0006E2F7727881F8827881FED018983EE23B6
:1037D00071F5211531054105510511F482E02FC025
:1037E0006E577040FD017383628367E0220F331FC1
:1037F000441F551F6A95D1F783E08C930AC0220FAE
:10380000331F441F551FED018A819B8101979B83C4
:103810008A832030E0E03E07E0E04E07E0E45E0708
:1038200070F3ED012C833D834E835F8325C0EF3F12
:1038300079F4211531054105510519F484E08C9383
:103840001BC044FF03C081E08C9311C01C920FC0C9
:103850006F577040ED017B836A8383E08C9387E030
:10386000220F331F441F551F8A95D1F75064FD0165
:103870002483358346835783DF91CF910895CF9377
:10388000DF93DC01FB019C91923008F446C08081FB
:10389000823008F442C0943049F4ED0169818430EB
:1038A00079F581819927861B91093CC0843021F0EC
:1038B000923031F48230A1F18181882371F52AC0E0
:1038C000ED0169818230E1F081816817C9F4ED0171
:1038D0002A813B8182819381821793078CF028177C
:1038E0003907B4F0ED018C819D81AE81BF812481C7
:1038F000358146815781281739074A075B0718F435
:10390000662341F40AC082179307A407B50740F461
:10391000662319F48FEF9FEF05C081E090E002C0AD
:1039200080E090E0DF91CF910895A0E1B0E0EBE975
:10393000FCE10C9420200F89188D86E08E831C8377
:103940000B838FEF9FE798878F83AE01455E5F4FB4
:103950005A834983698D7A8DCE0103960E94BA1CE1
:1039600029853A85020F131FF8011082E4E0609662
:103970000C943C20A7E1B0E0E0ECFCE10C941220B8
:103980008824992454012C017C8B6B8B3A01FC0117
:1039900017821682838181FD03C08FEF9FEF7EC265
:1039A000CC24DD249E012F5F3F4F3F8B2E8B65C2C1
:1039B000C0FE48C2832D80538A30D8F430E33316DA
:1039C00041F48D85882329F4C3FC03C0E0E0F1E0D5
:1039D00073C08AE0FD85F802C00111248053830D75
:1039E0008D8787FF02C02FE72D87C3FC40C22D843F
:1039F0003EC2960128703070C3FE05C08D858823B5
:103A000011F491E09D87E7E6E3156CF1F5E63F16CA
:103A10000CF068C083E5381609F489C08315BCF042
:103A20009BE2391609F442C093154CF0E0E23E16D1
:103A300009F440C0F3E23F1609F0FCC143C02DE297
:103A40003216E9F13EE2331609F0F4C140C083E6D4
:103A5000381609F44DC083150CF481C098E5391669
:103A600009F0E8C120C0E0E73E1609F4A2C0E31562
:103A70005CF0FCE63F1689F12FE6321689F039E654
:103A8000331609F0D7C16BC085E7381609F499C021
:103A900098E7391641F0E3E73E1609F0CBC130C094
:103AA000F8E0F88B8EC020E1288B8BC080E190E09D
:103AB000C82AD92AE0E2F0E0CE2ADF2AD8C120E8DD
:103AC00030E00DC080E490E0C82AD92AD0C1E8E0F7
:103AD000F0E0CE2ADF2A1D86CAC124E030E0C22AE7
:103AE000D32AC5C13FE3832E2A9423E6322E30C168
:103AF000F30180802A9422E030E0620E731E28C118
:103B0000F301A081B1814D01232B49F0FD856F2F79
:103B1000772767FD7095CD010E94661F18C0FD01D3
:103B200001900020E9F73197EA1BE88B11C0F301FF
:103B3000808191814C01232B41F0FD856F2F7727E8
:103B400067FD70950E945B1F02C00E94521F888B08
:103B500022E030E0620E731E3889231AF9C0C2FEDB
:103B600008C0F30180819181A281B38124E030E01B
:103B700009C0F30180819181AA2797FDA095BA2FF2
:103B800022E030E0620E731E4C015D01B7FF0CC0F5
:103B900082E090E0C82AD92AB094A09490948094AE
:103BA000811C911CA11CB11CEFEBFFEFCE22DF2288
:103BB00021C020E430E0C22AD32A98E7392E30E130
:103BC000388BC2FE08C0F30180819181A281B3814C
:103BD00024E030E007C0F30180819181AA27BB2750
:103BE00022E030E0620E731E4C015D018FEC9FEF0E
:103BF000C822D92285017401FE013196FF87EE8724
:103C0000F8898F2E9924AA24BB24232D21522D8B91
:103C1000C801B701A50194010E94DC1F6A301CF0A5
:103C20003D89630F01C0605DEE85FF856193FF876D
:103C3000EE87C801B701A50194010E94DC1F79013C
:103C40008A01211531054105510511F78824992470
:103C500054014E85FE894F1B842EC60182739070DD
:103C6000892B09F02A94C6FE07C02889203111F457
:103C700082E001C081E0281AC3FE12C08D85282F82
:103C8000332727FD3095842F9927821793072CF02F
:103C9000E7EFFFEFCE22DF2203C0FD85F41BFD8797
:103CA000860108701070C3FE03C02D85221A01C062
:103CB000241AC60180789170892B31F00AC0B201B4
:103CC00080E290E00E94711F2A94822D8F5F181667
:103CD000B4F3C1FE04C0B2018DE290E00BC0C4FE9B
:103CE00004C0B2018BE290E005C0C5FE05C0B20180
:103CF00080E290E00E94711FC6FE0FC0B20180E317
:103D000090E00E94711F3889303139F4B201832D5F
:103D1000992787FD90950E94711FD0FC06C00AC0AC
:103D2000B20180E390E00E94711F2A94822D8F5F80
:103D30001816B4F3012B31F40BC0B20180E390E00C
:103D40000E94711F8D8581508D878F5F1816ACF38F
:103D5000F601E078F070FA8BE98BC7FE06C00AC066
:103D6000B20180E290E00E94711F2A94822D8F5F41
:103D70001816B4F3F3E63F1641F4B201882D9927E3
:103D800087FD90950E94711F45C023E73216B1F45C
:103D900064017401188909C0F70181917F01B201A2
:103DA000992787FD90950E94711F1150A8F7460131
:103DB000F8898F0E911C2FEF288B2CC033E533161A
:103DC00019F00E851F851FC064018401F88808C0A2
:103DD000F8018491B20199270E94711F0F5F1F4F54
:103DE000FA94FFEFFF16A1F746012889820E911C75
:103DF000F88B10C0F80182918F01B201992787FDDD
:103E000090950E94711F2E893F890217130791F721
:103E10001F870E8789899A89892B31F426C0B201C0
:103E200080E290E00E94711F2A94822D8F5F181605
:103E3000B4F31BC0B201832D992787FD90950E9492
:103E4000711F13C095E2391641F4EAE0E88B222491
:103E50001D8681E0C82ED12C0AC0B201832D99277E
:103E600087FD90950E94711F02C0CC24DD242B8910
:103E70003C892F5F3F4F3C8B2B8BF201838183FF6B
:103E800004C0EB89FC89349003C0EB89FC89308045
:103E9000332009F08DCDF20186819781E2E16796AA
:103EA0000C942E20FC0105900020E9F78095909558
:103EB0008E0F9F1F0895FC01059061507040011006
:103EC000D8F7809590958E0F9F1F0895FC01615043
:103ED000704001900110D8F7809590958E0F9F1F2C
:103EE00008950F931F93CF93DF938C01EB018B8188
:103EF000992781FF1BC082FF0DC02E813F818C81DD
:103F00009D812817390764F4E881F9810193F983C9
:103F1000E88306C0E885F985802F0995892B31F45F
:103F20008E819F8101969F838E8302C00FEF1FEFCA
:103F3000C801DF91CF911F910F910895629FD00129
:103F4000739FF001829FE00DF11D649FE00DF11D54
:103F5000929FF00D839FF00D749FF00D659FF00D03
:103F60009927729FB00DE11DF91F639FB00DE11DF0
:103F7000F91FBD01CF0111240895991B79E004C0F8
:103F8000991F961708F0961B881F7A95C9F7809598
:103F9000089597FB092E07260AD077FD04D02ED06E
:103FA00006D000201AF4709561957F4F0895F6F7BA
:103FB000909581959F4F0895A1E21A2EAA1BBB1BD5
:103FC000FD010DC0AA1FBB1FEE1FFF1FA217B307E5
:103FD000E407F50720F0A21BB30BE40BF50B661FFB
:103FE000771F881F991F1A9469F7609570958095BF
:103FF00090959B01AC01BD01CF010895AA1BBB1B8D
:1040000051E107C0AA1FBB1FA617B70710F0A61BD8
:10401000B70B881F991F5A95A9F780959095BC01F9
:10402000CD0108952F923F924F925F926F927F92AF
:104030008F929F92AF92BF92CF92DF92EF92FF92B8
:104040000F931F93CF93DF93CDB7DEB7CA1BDB0B64
:104050000FB6F894DEBF0FBECDBF09942A88398809
:1040600048885F846E847D848C849B84AA84B98410
:10407000C884DF80EE80FD800C811B81AA81B9811C
:10408000CE0FD11D0FB6F894DEBF0FBECDBFED0130
:044090000895FFCFC1
:104094009F01CF0067004400330022001900100084
:1040A4000C00080060090000C01200008025000018
:1040B40040380000004B00008070000000960000B3
:1040C40000E10000002C010000C201001B5B324A29
:1040D40000754E69426F6172642076657220312EDC
:1040E400310053434F5245200053434F52453A0049
:1040F4002564005468696E6B4C414253000101020F
:1041040004081020408000000100020001000300A8
:10411400010002000100040001000200010003008C
:10412400010002000100050001000200010003007B
:10413400010002000100040001000200010003006C
:10414400010002000100060001000200010003005A
:10415400010002000100040001000200010003004C
:10416400010002000100050001000200010003003B
:10417400010002000100040001000200010003002C
:104184000100020001000700010002000100030019
:10419400010002000100040001000200010003000C
:1041A40001000200010005000100020001000300FB
:1041B40001000200010004000100020001000300EC
:1041C40001000200010006000100020001000300DA
:1041D40001000200010004000100020001000300CC
:1041E40001000200010005000100020001000300BB
:1041F40001000200010004000100020001000300AC
:0E4204000100020001000000000000000000A8
:00000001FF
